S0130000456E7472656761626C65322E73726563E6
S11300000C9454000C9471000C9471000C947100C5
S11300100C9471000C9471000C9471000C94710098
S11300200C9471000C9471000C9471000C948B0569
S11300300C9471000C9471000C9471000C94710078
S11300400C9471000C9471000C9471000C94710068
S11300500C9471000C9471000C9471000C94710058
S11300600C9471000C947100001F000000001F002C
S1130070001F101010101F00001F181818181F0060
S1130080001F1C1C1C1C1F00001F1E1E1E1E1F0008
S1130090001F1F1F1F1F1F0003070F1F0F07030051
S11300A0181C1E1F1E1C180011241FBECFEFD8E001
S11300B0DEBFCDBF11E0A0E0B1E0E6E5FBE002C0A9
S11300C005900D92A836B107D9F721E0A8E6B1E072
S11300D001C01D92A237B207E1F70E941C030C94E1
S11300E0A9050C94000084B1806284B987B180634F
S11300F087B985B18F7D85B988B18F7C88B908951A
S1130100CF93DF9360E080E00E945A02CDE6D1E015
S11301108881805D0E9412018981805D0E941201A4
S11301208AE30E9412018A81805D0E9412018B8100
S1130130805D0E941201DF91CF91089584B189619D
S113014084B98AB180688AB98AB1837C8AB98BB14F
S11301508C638BB90895E0E040C085B1896185B9AD
S11301608BB180688BB9E13051F028F0E23059F05E
S1130170E33069F00FC085B18F7E85B90BC085B1BE
S1130180877F85B907C085B18E7F85B903C08BB1E0
S11301908F778BB985E38A95F1F700004B9B08C0F4
S11301A04D9B08C04C9B08C04A9B08C08FEF07C0FA
S11301B080E005C081E003C082E001C083E08F3F9E
S11301C059F0F0E0EE0FFF1FEE0FFF1FED5FFE4F43
S11301D0E80FF11D80810895EF5FE43008F4BDCF8E
S11301E08FEF0895CF93DF93EC010E94AB008F3F14
S11301F031F4809301018093000180E010C090915C
S11302000101891309C090910001891729F088839D
S11302108093000181E003C08093010180E0DF91BD
S1130220CF91089565B1982F9074492F50E055955A
S11302304795559547955595479555954795982FC5
S11302409078292F30E0022E232F000C221F330B2D
S1130250000C221F331F962F997F492B242B25B97D
S113026068B1982F9071492F50E055954795559551
S1130270479555954795982F9072292F30E03595DD
S113028027953595279535952795962F997F492B51
S1130290242B28B99BB192609BB99BB191609BB907
S11302A025ED2A95F1F700009BB19E7F9BB99BB188
S11302B09D7F9BB995ED9A95F1F7000065B120E11A
S11302C0829FC0011124AC01407455275595479570
S11302D05595479555954795559547959C01207893
S11302E03327022E232F000C221F330B000C221F56
S11302F0331F362F397F432B242B25B948B19C015A
S1130300207133273595279535952795359527956C
S11303108072992795958795959587959595879555
S1130320942F997F292B822B88B98BB182608BB94A
S11303308BB181608BB985ED8A95F1F700008BB1A3
S11303408E7F8BB98BB18D7F8BB995ED9A95F1F733
S11303500000089565B1982F9074492F50E0559589
S11303604795559547955595479555954795982F94
S11303709078292F30E0022E232F000C221F330BFC
S1130380000C221F331F962F997F492B242B25B94C
S113039068B1982F9071492F50E055954795559520
S11303A0479555954795982F9072292F30E03595AC
S11303B027953595279535952795962F997F492B20
S11303C0242B28B99BB191609BB9EFE9FFE03197E9
S11303D0F1F700C000009BB19E7F9BB9EFE9FFE0FD
S11303E03197F1F700C0000065B1F0E18F9FC001C3
S11303F01124AC014074552755954795559547955B
S113040055954795559547959C0120783327022E9D
S1130410232F000C221F330B000C221F331F362FF7
S1130420397F432B242B25B948B19C0120713327F4
S11304303595279535952795359527958072992774
S1130440959587959595879595958795942F997FFB
S1130450292B822B88B98BB181608BB98FE99FE0FE
S11304600197F1F700C000008BB18E7F8BB9EFE9E3
S1130470FFE03197F1F700C00000089581E00E9489
S1130480AA0108950F931F93CF93DF93009769F008
S1130490D62F8C01C0E007C0F801EC0FF11D80815C
S11304A00E941201CF5FCD17B8F3DF91CF911F9156
S11304B00F910895623031F0633031F0613029F4E6
S11304C0805C03C08C5E01C08C5A80680E94AA01C3
S11304D00895EF92FF920F931F93CF93DF937C01C4
S11304E0862F90E0880F991F880F991F880F991FF6
S11304F08064C0E0D0E00DC0F701EC0FFD1F149143
S113050001E0080F0E94AA01812F0E941201219686
S1130510802FC830D10580F3DF91CF911F910F91C7
S1130520FF90EF900895CF93DF932FEF86E791E04C
S1130530215080409040E1F700C0000085B1897FE0
S113054085B988B1897F88B91BB884B1866084B9BC
S113055087B1866087B98AB183608AB985B1897F9A
S113056085B988B1866088B98BB181608BB98FE910
S11305709FE00197F1F700C000008BB18E7F8BB92B
S11305808FE99FE00197F1F700C0000085B1897FF2
S113059085B988B1866088B98BB181608BB98FE9E0
S11305A09FE00197F1F700C000008BB18E7F8BB9FB
S11305B08FE99FE00197F1F700C0000085B1897FC2
S11305C085B988B1897F846088B98BB181608BB922
S11305D08FE99FE00197F1F700C000008BB18E7F97
S11305E08BB98FE99FE00197F1F700C0000088E222
S11305F00E94AA018CE00E94AA0160E0C0E00AC047
S1130600D1E0D60F8C2F90E088599F4F0E94690249
S1130610C85F6D2FC034A0F3DF91CF9108950E947D
S11306209E000E9493020E9476050E9473000E941D
S11306303E020E94800008950E940F030E946205FA
S1130640FDCF40916B0150916C019A01A9E8B8E883
S11306500E949A05FC01F695E795F295E295EF70F4
S1130660EF27FF70EF272CE32E9FC0012F9F900DE3
S11306701124481B590BADE6B1E08DECE89F912D98
S113068011249695969596959C93990F292F220F50
S1130690220F920FE91B1196EC931197489F812D1D
S11306A0112486958695869512968C931297880FB9
S11306B0982F990F990F890F481B13964C930895FF
S11306C095B19F7D95B998B19F7C98B9882371F1B4
S11306D080ED860F8A3068F4EDE6F1E01082118235
S11306E01282838381E0809369010E94800081E00B
S11306F008956334E9F48EE190E090936C01809363
S11307006B010E9421030E94800061E080E00E944E
S11307105A0260E183E191E00E94420285B1806265
S113072085B988B1806188B982E0089580E0089530
S113073080E00895882309F4A6C080ED860F8A30EE
S1130740A8F490916901943008F09FC0EDE6F1E0BF
S113075021812083228121832381228383839F5FBC
S1130760909369010E94800081E008956234A9F4A5
S1130770EDE6F1E013821282118210821092690177
S11307800E94800061E080E00E945A0260E184E2FD
S113079091E00E94420280E00895613409F044C06F
S11307A0EDE6F1E080819181880F282F220F220F3E
S11307B0820F282F290F82819381880F382F330FBE
S11307C0330F830F890F90E03CE3239F800D911D2D
S11307D0112490936C0180936B018037974130F022
S11307E08FE697E190936C0180936B0180916B018C
S11307F090916C01892B09F44AC0109269010E94FE
S113080021030E94800061E080E00E945A0260E1BE
S113081083E191E00E94420285B1806285B988B18A
S1130820806188B982E00895633499F5EDE6F1E0DA
S113083080819181880F282F220F220F820F282F69
S1130840290F82819381880F382F330F330F830F41
S1130850890F90E03CE3239F800D911D11244E9657
S113086090936C0180936B018037974130F08FE651
S113087097E190936C0180936B010E9421030E9485
S1130880800081E0089581E0089581E0089581E089
S1130890089581E00895CF93DF93D82FC62F8091D8
S11308A07101882381F11092710180916B01909103
S11308B06C01009749F0019790936C0180936B0150
S11308C00E9421030E94800080916B0190916C0131
S11308D0892BC9F485B18F7D85B988B18F7E88B99C
S11308E088B1806288B910926A0181E08093020124
S11308F061E080E00E945A0260E185E391E00E9499
S1130900420284E042C0DD23E9F1C23471F485B1CE
S11309108F7D85B961E080E00E945A0260E186E43F
S113092091E00E94420283E030C0C334C1F480915C
S11309306B0190916C014E9690936C0180936B01C6
S11309408037974130F08FE697E190936C01809364
S11309506B010E9421030E94800082E016C0C4340F
S113096099F485B18F7D85B988B18F7E88B961E0AE
S113097080E00E945A0260E187E591E00E94420211
S113098083E003C082E001C082E0DF91CF9108954B
S1130990882341F1613489F485B1806285B988B1D5
S11309A0806188B961E080E00E945A0260E183E1DD
S11309B091E00E94420282E008956234A9F4EDE6D7
S11309C0F1E013821282118210820E94800061E0A1
S11309D080E00E945A0260E184E291E00E944202B7
S11309E080E0089583E0089583E00895CF93C82FAD
S11309F0809171018823A1F11092710180916A01A3
S1130A008F5F80936A0181E090910201911180E0EF
S1130A1080930201882379F00E94800061E080E0E5
S1130A200E945A0260E185E391E00E94420288B18B
S1130A30806288B905C00E943E0288B18F7D88B962
S1130A4080916A01853060F0EDE6F1E01382128254
S1130A50118210820E943E020E94800080E012C037
S1130A60CC2379F088B18F7D88B9EDE6F1E013826B
S1130A701282118210820E943E020E94800080E055
S1130A8001C084E0CF910895423089F028F44423D2
S1130A9041F0413049F014C0433061F0443069F012
S1130AA00FC00E94600308950E949A0308950E9453
S1130AB04B0408950E94C80408950E94F604089502
S1130AC080E00895CF93DF931F92CDB7DEB7CE01B8
S1130AD001960E94F2004091680169810E944405D8
S1130AE0809368010F90DF91CF910895E1E8F0E0E1
S1130AF080818860808380818560808388E09DE335
S1130B009093890080938800EFE6F0E08081826012
S1130B108083789408951F920F920FB60F92112438
S1130B208F9381E0809371018F910F900FBE0F908E
S1130B301F901895A29FB001B39FC001A39F700D91
S1130B40811D1124911DB29F700D811D1124911DD1
S1090B500895F894FFCFA4
S1130B56FFFF013132334134353642373839432ABF
S1130B66302344436F63696E616E646F2E2E2E20AC
S1130B76202020002020202020202020202020208B
S1130B86202020200046696E20436F6363696F6EE0
S1130B962120202020005061757361646F2E2E2E53
S1130BA62020202020200050756572746120416247
S10B0BB66965727461212000DD
S9030000FC
